:0400000080313928EA
:100008007E14803120007F08FB000B1F1E28210072
:10001800911E1E282000911E1E289531942580319E
:100028002000641834288731282780312000E416FE
:10003800E90134282100901E29282000901E292833
:1000480090128C31A224803134280B1F34282100CF
:10005800911C34282000911C342891108931E12109
:100068007B082000FF007E10090080313B2800300B
:10007800840088308500C0308600013087000C304D
:100088009431AB248031FC01FD01643084000030E0
:1000980085000C309431A5248031D03084000030A4
:1000A80085001C309431A524803120308400013033
:1000B80085004F309431A5248031A0308400013070
:1000C800850020309431A5247E1020008B31EE2B42
:1000D80021006A082000BA00BB012100690820003D
:1000E800BC00BD013C08A0003D08A1003C30A200B6
:1000F8000030A3009631F226803120003A0820070C
:10010800BE003B08213DBF003E082100C30020007F
:100118003F082100C4006B082000BA003A082100FB
:10012800BF0022003C082000BA00BB0122003B08A7
:100138002000BC00BD013C08A0003D08A1003C30E7
:10014800A2000030A3009631F226803120003A0840
:100158002007BE003B08213DBF003E082100B0003B
:1001680020003F082100B10022003E082000BA000C
:10017800BB0122003D082000BC00BD013C08A000D6
:100188003D08A1003C30A2000030A3009631F226C1
:10019800803120003A082007BE003B08213DBF00FF
:1001A8003E082100B20020003F082100B3002200D1
:1001B80044082000BA00BB01220043082000BC000C
:1001C800BD013C08A0003D08A1003C30A200003061
:1001D800A3009631F226803120003A082007BE009D
:1001E8003B08213DBF003E082100B40020003F0825
:1001F8002100B500220046082000BA00BB012200F9
:1002080045082000BC00BD013C08A0003D08A10035
:100218003C30A2000030A3009631F2268031200045
:100228003A082007BE003B08213DBF003E082100D8
:10023800B60020003F082100B700C801043048027A
:100248000318792948080C3E3B3E86000130870098
:1002580001082000BA0021004808A03E8600870156
:1002680020003A08810021004808043E3B3E8600F1
:100278000130870001082000BA0021004808043E28
:10028800A03E8600870120003A0881002100480826
:10029800043E3B3E86000130870001082000BA007A
:1002A80021004808083EA03E8600870120003A0841
:1002B8008100210048080C3E3B3E86000130870043
:1002C80001082000BA00210048080C3EA03E860024
:1002D800870120003A0881000130BA003A0821005D
:1002E800C80704304802031C2629C8010430480204
:1002F8000318E92B4808013E03392000BA003A08E0
:100308002100C0004835B03E86008701403FC50047
:10031800413FC6004035B03E86008701403FC100DE
:10032800413FC20046084202031D9C29450841027C
:10033800031CC42946084402031DA4294508430296
:10034800031CDF2B42084402031DAC294108430269
:100358000318DF2B45092000BA00210046092000B8
:10036800BB00BA0A0319BB0A2100410820003A075A
:100378002100B800420820003B3D2100B900F929BE
:1003880046084402031DCA29450843020318D42914
:1003980042084402031DD229410843020318DF2BF7
:1003A80045092000BA00210046092000BB00BA0A0E
:1003B8000319BB0A2100410820003A07BC002100AC
:1003C800420820003B3DBD003C08A03E2100B8008B
:1003D800053020003D3D2100B90046084402031DB8
:1003E800F72945084302031C122A3F082000BA00D7
:1003F800BB01210045092000BC002100460920005E
:10040800BD00BC0A0319BD0A2100430820003C07AF
:10041800A0002100440820003D3D302A3F0820006C
:10042800BA00BB01210045092000BC002100460993
:100438002000BD00BC0A0319BD0A210043082000A2
:100448003C07BE002100440820003D3DBF003E0897
:10045800A03EA00005303F3DA1003C30A200003086
:10046800A3009631F226803120003A0820072100A7
:10047800BA0020003B08213D2100BB00BC01BD01A2
:10048800C701043047020318DF2B40082000BA00D8
:100498000230BA35890B4D2AA0303A07BB0021003B
:1004A800470820003B07BC003C0886008701210064
:1004B80048082000BD000230BD35890B602AA030F5
:1004C8003D07BE002100470820003E07BF003F0847
:1004D8008400850100080102031C222B210040082A
:1004E8002000BA000230BA35890B772AA0303A07C3
:1004F800BB002100470820003B07BC003C088600E1
:100508008701210048082000BD000230BD35890B55
:100518008A2AA0303D07BE002100470820003E0778
:10052800BF003F08840085010003FF3A0107C000AF
:1005380040082100BE0048082000BA000230BA3541
:10054800890BA32AA0303A07BB00210047082000E6
:100558003B07BC003C08860087010108BD00BE01BE
:100568003D08A0003E08A1000A30A2000030A30008
:100578009631F226803120002008BF002108C000F3
:100588000630A2000030A300210039082000A10095
:10059800210038082000A0009631F2268031200082
:1005A8002008C1002108C200C301C4014408AF00EB
:1005B8004308AE004208AD004108AC0021003E08E7
:1005C8002000C500C601C701C8014808A3004708A4
:1005D800A2004608A1004508A00021003D0820000F
:1005E800A70021003C082000A60021003B082000AD
:1005F800A50021003A082000A4008931B1218031EA
:1006080020002308B3002208B2002108B100200806
:10061800B0008B319B23803120002C083F07C90094
:100628002D08403DCA0021004735DC3E8600870181
:1006380020004908C03F4A08C13FD62B210048087E
:100648002000BA000230BA35890B272BA0303A07B0
:10065800BB002100470820003B07BC003C0886007F
:100668008701210040082000BD000230BD35890BFC
:100678003A2BA0303D07BE002100470820003E0766
:10068800BF003F08840085010003FF3A0107C0004E
:1006980040082100BE0006302000A2000030A30060
:1006A800210039082000A100210038082000A000FE
:1006B8009631F226803120002008BA002108BB00BC
:1006C800BC01BD013D08AF003C08AE003B08AD00D1
:1006D8003A08AC0021003E082000BE00BF01C0015E
:1006E800C1014108A3004008A2003F08A1003E083C
:1006F800A00021003D082000A70021003C082000A0
:10070800A60021003B082000A50021003A0820008F
:10071800A4008931B121803120002308B3002208C8
:10072800B2002108B1002008B0008B319B23803132
:1007380020002C09C2002D09C300C20A0319C30AEC
:10074800210048082000C4000230C435890BA92BB9
:10075800A0304407C5002100470820004507C6000F
:100768004608860087010108C700C8014708A0009D
:100778004808A1000A30A2000030A3009631F226F2
:100788008031200042082007C9004308213DCA00E3
:1007980021004735DC3E8600870120004908C03F1C
:1007A8004A08C13F0130BA003A082100C70704309F
:1007B8004702031C492A01302000BA003A082100E8
:1007C800C80704304802031C7E29893157210800D4
:1007D800210050180800683022004F06031D080049
:1007E800192F03302000AA002A08A0004F309631A4
:1007F8008826833122005206031D08005108031D74
:10080800102C2010211C0C2C96316F268331142CAF
:1008180095315C258331142C2200510303192014CF
:100828002100501503302000AA002A082100D30017
:100838008D31062508002018080003302000AA0082
:100848002A08A0004F3096318826833122005206AC
:10085800031D08005108031D362C211095315C2515
:1008680083313E2C22005103031D3E2C2114963166
:100878006F2683312100501503302000AA002A0872
:100888002100D3008D3106250800211C08002018FE
:100898000800A2010A302000AA002A08B300330881
:1008A8004F3E8400013085003308AA002A08A000C2
:1008B8004F309631882683310006031D080020003A
:1008C800BC0104303C020318A52C3C35033E4F3EC6
:1008D8008600013087000108AA00AB013C35023EC2
:1008E8004F3E8600013087000108AC00AD012C089E
:1008F800AD00AC012A082C04B5002B082D04B60065
:1009080003303602E9300319350203189D2C3C35B3
:10091800023E213E8600013087003508C03F360878
:10092800C13F3C35D43E860087013508C03F3608B4
:10093800C13F0130AA002A08BC0704303C02031C4E
:10094800692C2100501503302000AA002A08210034
:10095800D3000800220050085106031DB52C0130B1
:10096800B62C00302000AA00AB012A0822004F064E
:100978002000AC002B08AD002C082D04031908003A
:100988008D310625080004302200510203180800A2
:1009980003302000AA002A08A0004F30963188268C
:1009A800833122005206031D080051082000AA00C6
:1009B8002A08AF00B801043038020318102D0A3095
:1009C800A0000030A1003835DC3E86008701403F9A
:1009D800A200413FA3008A3116228331200020085B
:1009E800AA002F08AB000230AB35890BF82C213058
:1009F8002B07AC0038082C07AD002D080A3E8600EE
:100A0800013087002A0881000130AA002A08B807A7
:100A180004303802031CE32C210050150330200059
:100A2800AA002A082100D3008D31062508001230BB
:100A38002000AA002A08A0004F309631882683316A
:100A480022006106031D080010302000AA002A08B1
:100A5800B000B701300837020318462D3708023EA8
:100A68004F3E8600013087000108AA0037083B3E48
:100A78008600013087002A0881000130AA002A0870
:100A8800B7072E2D2100501503302000AA002A0890
:100A98002100D3008D3106250800211C08000430F0
:100AA8002000AA002A08A0004F30963188268331FA
:100AB80022005306031D08000430510203180800E1
:100AC80051082000AA002A08BA003A35023E213E01
:100AD800860001308700403FAA00413FAB0022005A
:100AE800520820002A07AC002B0803182B0AAD0077
:100AF80003302D02E83003192C0203189F2D3A35D4
:100B0800023E213E860001308700220052088107FC
:100B180041310318810A20003A35023E213E860001
:100B2800013087003A35D43E84008501403F803F3C
:100B3800413F813FB92DE830AA000330AB003A3578
:100B4800023E213E8600013087002A08C03F2B085C
:100B5800C13FE830AA000330AB003A35D43E8600E6
:100B680087012A08C03F2B08C13F210050150330D8
:100B78002000AA002A082100D3000800211C080030
:100B880004302000AA002A08A0004F309631882699
:100B9800833122005306031D080004305102031854
:100BA800080051082000AA002A08BB003B35023E75
:100BB800213E860001308700403FAA00413FAB003C
:100BC800220052082000AC00AD012B082D02031DA5
:100BD800EF2D2A082C0203180E2E3B35023E213E2B
:100BE8008600013087002200520881024131031C2F
:100BF80081037F3120003B35023E213E86000130D3
:100C080087003B35D43E84008501403F803F413F0B
:100C1800813F1E2E3B35023E213E86000130870073
:100C28000030C03FC13F3B35D43E860087010030CD
:100C3800C03FC13F2100501503302000AA002A08F8
:100C48002100D3000800201C08000A302000AA0058
:100C58002A08B40034084F3E840001308500340867
:100C6800AA002A08A0004F30963188268331000652
:100C7800031D08002000B901043039020318762E3C
:100C88003935033E4F3E8600013087000108AA002F
:100C9800AB013935023E4F3E86000130870001081E
:100CA800AC00AD012C08AD00AC012A082C04B10041
:100CB8002B082D04B20003303202E9300319310247
:100CC80003186E2E3935DC3E860087013108C03F97
:100CD8003208C13F0130AA002A08B9070430390296
:100CE800031C442E893157212100D01503302000E0
:100CF800AA002A082100D200080022005008510644
:100D0800031D882E0130892E00302000AA00AB0177
:100D18002A0822004F062000AC002B08AD002C0842
:100D28002D04031908002100D011D2010800220067
:100D380050085106031DA22E0130A32E00302000BA
:100D4800AA00AB012A0822004F062000AC002B089D
:100D5800AD002C082D04031908008A31C2220800AE
:100D680009302000AA002A08A0004F3096318826B2
:100D7800833122005806031D080051082000AA00EC
:100D88002A082100E500220052082000AA002A08AB
:100D98002100E600220053082000AA002A082100AA
:100DA800E700220054082000AA002A082100E800D1
:100DB800220055082000AA002A082100E900220084
:100DC80056082000AA002A082100EA002200570835
:100DD8002000AA002A082100EB0006302200A00407
:100DE80094318B2483318D31062508002200500868
:100DF8005106031D012F0130022F00302000AA00E8
:100E0800AB012A0822004F062000AC002B08AD00D9
:100E18002C082D0403190800210050140330200069
:100E2800AA002A082100D100080022005008FE3E2E
:100E3800031C080084000E300402031808009031D7
:100E480004356D3E8200080020006708031D2E2F20
:100E5800E801080003306802031C08006808FE3E29
:100E68004F3E8600013087000D300106031D080043
:100E78006808FF3E4F3E8600013087000A300106B1
:100E8800031D080068084F3E860001308700810175
:100E9800E801BB2F6030F0009030F1004F3088310E
:100EA8004C208731003A031D0800622F200064158A
:100EB80008000130F4007408EA0008002000670800
:100EC800013A03195A2F033A03195D2F013A0319FE
:100ED8005A2F073A03195A2F013A03195D2F033A7B
:100EE80003195D2F0E3A03195A2F013A03195D2F82
:100EF800C72F08006030F0009030F1004F30883183
:100F08004C208731003A031D080020006415EA01CF
:100F180008006415EA0108000230F4007408EA00C9
:100F280008006415EA013530F0009030F1004F30C8
:100F380088314C208731003A031D080020006417CF
:100F480008006708023A03197E2F073A03198D2F04
:100F5800033A0319902F0F3A0319952FC72F08004A
:100F680006306706031D08006415EA0108006A08D0
:100F7800003A03194E2F013A0319A52F033A031912
:100F8800B42FC72F08000800F301043073020318B8
:100F9800FD2F02307306031DE52F7335023E213EF7
:100FA80086000130870022004D08C03F4E08C13F2F
:100FB8007335DC3E860087014D08C03F4E08C13FAF
:100FC800F52F7335023E213E860001308700003040
:100FD800C03FC13F7335DC3E860087010030C03F0B
:100FE800C13F0130F2007208F30704307302031C9A
:100FF800CD2F9731E02708001F341C341F341E34CE
:101008001F341E341F341F341E341F341E341F3443
:10101800E8302000A0000330A10097316427883110
:10102800E8302000A0000330A100973183278831E1
:10103800E8302000A0000330A1009731A2278831B2
:10104800E8302000A0000330A1009731C127080034
:101058002100A000A1302000DA005A08A5002F3096
:10106800DB005B08A600210020089631D7268831CE
:10107800A1308600003087002B30840000308500C6
:101088002F302000DA0016001A00DA0B4728080073
:10109800F30070088400710885000008F2007308E6
:1010A80086000130870001087206031D6C28013094
:1010B800F2007208F3070130F0070030F13D7008C4
:1010C8008400710885001200031D4D2800300800B7
:1010D8000130080000308B1B01302000A3002108DC
:1010E80031009200200020083100910020002208E1
:1010F80031009300151715158B1355309600AA303B
:10110800960095149518862815112000230C031CA9
:101118008B1303188B170800F301043073020318AC
:10112800B0287335023E213E860001308700220038
:101138004B08C03F4C08C13F7335DC3E8600870131
:101148004B08C03F4C08C13F0130F2007208F3075A
:1011580004307302031C95289731E027080020000B
:10116800A301043023020318D7282335023E213E69
:1011780086000130870022004B08C03F4C08C13F61
:1011880020002335DC3E8600870122004B08C03F43
:101198004C08C13F01302000A2002208A3070430F8
:1011A8002302031CB928893157210800200025088B
:1011B800A2002408A1009631582688312000E414A2
:1011C800E601ED282508A2002408A100963158263A
:1011D80088312000641900291E306502031CED289F
:1011E800E5010130A6002608E60703306602031C65
:1011F800E628E601E4106416641108002000A40043
:1012080022008E1005302000A3002630A200A20B79
:101218000B29A30B0B29000001302000A102210A91
:1012280003192529200024088600013087000108B9
:101238009431B124893101302000A2002208A4078A
:10124800102923009E1C252922008E1408007008EE
:10125800710403195229F501F50AF11B3D290130E2
:10126800F035F10D890B34290130F4007408F507C5
:10127800312971087302031D432970087202031C87
:1012880049297008F2027108F33B0130F136F00C7D
:10129800890B4A290130F502031D3D297308F10025
:1012A8007208F000080021005D082000A10021005C
:1012B8005C082000A0009731A227893121005F082F
:1012C8002000A10021005E082000A000973183279C
:1012D8008931210061082000A10021006008200058
:1012E800A0009731C1278931210063082000A1009F
:1012F800210062082000A00097316427080003300D
:101308007605F80000307705F900780879040319A4
:10131800AF296430F0000030F1007708F300760858
:10132800F20089312B21893170087104031DAD2920
:101338009030F0000130F1007708F3007608F200F1
:1013480089312B21893170087104031DAF290130BF
:101358000800013008000030080000302000AB0011
:101368000030AA000030A9000030A800201CC429C1
:101378002408A8072508A93D2608AA3D2708AB3D4B
:101388000130A435A50DA60DA70D890BC52901307F
:10139800A336A20CA10CA00C890BCC29230822048B
:1013A80021042004031DBA292B08A3002A08A2003F
:1013B8002908A1002808A00008002000E41CE8294A
:1013C8000130F9007908E507E41EF5290130F90034
:1013D8007908E90710306902031CF529E412EA01CB
:1013E800E8010130F9007908ED0704306D02031CAB
:1013F800082AED018A314B2289317C080319082A11
:101408008E31F0268931FC01210050180800220095
:10141800200C0339033A031D0800201808008D31F9
:10142800732508002000A501A6012008210403193E
:10143800462AA701A70AA11B2B2A0130A035A10D16
:10144800890B222A0130A4002408A7071F2A01308B
:10145800A535A60D890B2C2A21082302031D362A3F
:1014680020082202031C3D2A2008A2022108A33BCF
:1014780025140130A136A00C890B3E2A0130A702A1
:10148800031D2B2A2608A1002508A0000800953175
:101498006E258A31F2007208F300730803196B2A6B
:1014A80073087D06031D7E2A0130F20072082000B1
:1014B800EF071A306F02031C802A1930F2007208F5
:1014C800EF0073084038F2007208FC00802A7D089B
:1014D80003197E2A193020006F02031C762A7D0822
:1014E80020387B2A03306F02031C7E2A7D08F20015
:1014F8007208FC002000EF017308F2007208FD007A
:1015080008002000A301043023020318BF2A023078
:101518002306031DA52A2335023E213E86000130FD
:10152800870022004D08C03F4E08C13F20002335E8
:10153800DC3E8600870122004D08C03F4E08C13FAF
:10154800B62A20002335023E213E8600013087005E
:101558000030C03FC13F2335DC3E860087010030A4
:10156800C03FC13F01302000A2002208A307043079
:101578002302031C8B2A89315721080007302000D9
:10158800A6002608A8006830A60026082300A000A8
:101598000D302000A60026082300A1002000A90184
:1015A800280829020318EB2A2908E53E8600870146
:1015B8000108A6002908023EA03E860001308700E7
:1015C800260881000130A6002608A907D42A280881
:1015D800023EA6002608A000A030963188268A314F
:1015E8002000A70027082300A90020002808033EA0
:1015F800A6002608A100A030893102210800220097
:101608008C01D0308D008E01373021008C008D0187
:1016180005308E0023008E018D018C0124008D0180
:1016280006308C008E0125008C018D018E01003062
:101638008B1B01302000A0008B1355303C008F001D
:10164800AA308F000F102408E0391238A4003D009A
:101658001C08E03914389C002408E0390D38A4002F
:101668002308E0390E38A3002608E0390F38A60011
:101678002508E0390C38A50055303C008F00AA3009
:101688008F000F142000201C4B2B8B1708008B1386
:1016980008002200200C03392000A4002408A5001B
:1016A8008C2B95315C258B3194319A240800883134
:1016B800B3208B31943190248B3196316F260800FA
:1016C8008A3185228B31943195248B3196316F265E
:1016D800080094318B248B31220020180800200048
:1016E800A60104302602031808002635023E213ED2
:1016F8008600013087002635D43E84008501403FAE
:10170800803F413F813F0130A4002408A607752B84
:101718002508003A0319552B013A03195B2B033AA4
:101728000319642B013A03196D2B9A2B080000301A
:101738002000B8000030B7000030B6000030B50017
:101748002F082E042D042C040319E52BB901B90A1E
:10175800AF1BBA2B0130AC35AD0DAE0DAF0D890BFB
:10176800AF2B0130B4003408B907AC2B0130B535C4
:10177800B60DB70DB80D890BBB2B2F083302031D0F
:10178800CF2B2E083202031DCF2B2D083102031D4B
:10179800CF2B2C083002031CDA2B2C08B0022D08A2
:1017A800B13B2E08B23B2F08B33B35140130AF369E
:1017B800AE0CAD0CAC0C890BDB2B0130B902031D50
:1017C800BA2B3808AF003708AE003608AD00350828
:1017D800AC0008009631BC268B318B170B1794315F
:1017E8009F248B31953181258B31943171248B3134
:1017F800943174248B318C3146248B316400200061
:10180800641C022C0C19182C22008E1C182C200089
:10181800E8010530E3002630E200E20B112CE30B6F
:10182800112C000022008E1020000C1D242C2200F8
:101838008E18242C8E148331EC238B312000E80180
:101848002100D01C022CD010501C2E2C9631A22620
:101858008B313F2C2200200C0339033A0319201C3A
:101868003F2C2100D01D3C2C953102258B313F2C7B
:1018780080316C208B312100501D022C9731462776
:101888008B31022C1A302000A800F830A700A70BD3
:101898004B2CA80B4B2C000022008D160530200085
:1018A800A9000F30A800F430A700A70B592CA80BEB
:1018B800592CA90B592C01302000A7002708E70054
:1018C8006830A4009030A5008831DA208C310930C6
:1018D8002000A7002708E7002230A4009030A500C8
:1018E8008831DA208C312000641B852C0830A70051
:1018F8002708E7000030A4009030A5008831DA20DE
:101908008C3102302000A7002708E7005530A400DA
:101918009030A5008831DA208C3103302000A700F0
:101928002708E7004630A4009030A5008831DA2067
:101938008C312000641A0800641408000130FA0091
:101948007A082100EB073C306B02031C042DEB01E5
:101958000130FA007A08EA073C306A02031C042DB9
:10196800EA010130FA007A08E90718306902031C15
:10197800042DE9010130FA007A08E7070130FA007E
:101988007A08E807073068020318E8016508D03EBE
:10199800F600073003180830F700893183218C31AD
:1019A800003A0319D92C1D30DA2C1C30FA007A08B9
:1019B8002300C1000D30210066020318042D6608BB
:1019C8000319042D6608FF3EC03E860001308700DB
:1019D800670801020318042D0130FA007A08E700AD
:1019E8000130FA007A08E6070D306602031C042D60
:1019F8000130FA007A08E6000130FA007A08E507B3
:101A0800D014080068302000A60026082300A00093
:101A180005302000A60026082300A100003022007F
:101A2800201801302300A2002200201C392D10307C
:101A38002000A6002608A800A901280829020318E2
:101A4800572D29083B3E8600013087000108A60073
:101A58002908033EA03E8600013087002608810041
:101A68000130A6002608A907212D1A302000A6005B
:101A78002608A800A901280829020318572D2908B3
:101A8800213E8600013087000108A6002908033E90
:101A9800A03E860001308700260881000130A6009C
:101AA8002608A9073F2D2808033EA6002608A000FF
:101AB800A030963188268D312000A7002808033EE3
:101AC800A03E860001308700270881002808043ED0
:101AD800A6002608A100A030893102210800F801DB
:101AE800043078020318F52D7835D43E8600870136
:101AF800403FF200413FF3007835DC3E8600870125
:101B0800403FF400413FF50073087506031D8E2D14
:101B1800720874060319ED2D7835D43E86008701C6
:101B2800403FF200413FF3007835DC3E86008701F4
:101B3800403FF400413FF5007408043EF6000030D1
:101B4800753DF70073087702031DAC2D7208760205
:101B58000318B82D7835DC3E8600870104308107EC
:101B680041310318810AED2D7835DC3E8600870166
:101B7800403FF200413FF3007835D43E86008701AC
:101B8800403FF400413FF5007408043EF600003081
:101B9800753DF70073087702031DD42D720876028D
:101BA8000318E12D7835DC3E860087010430810278
:101BB80041310030813B7F31ED2D7835D43E8600B0
:101BC80087017835DC3E84008501403F803F413FF6
:101BD800813F0130F2007208F80704307802031CD4
:101BE800782D9731E0270800103088312C208D316E
:101BF80020002B3086000030870020308400013020
:101C080085002F30DC0016001A00DC0B072E073089
:101C18002200A0050130A1052000E1010430610285
:101C280003189C2E6135023E213E86000130870054
:101C3800403FDC00413FDD0003305D02E93003191D
:101C48005C02031C352EE830DC000330DD00613512
:101C5800023E213E8600013087005C08C03F5D08D7
:101C6800C13FE0010430600203186C2E6008DC00FC
:101C78000230DC35890B3D2E21305C07DD00610820
:101C88005D07DE005E080A3E860001308700653089
:101C98000102031C642E6430DC006008DD000230A1
:101CA800DD35890B542E21305D07DE0061085E07A3
:101CB800DF005F080A3E8600013087005C0881006B
:101CC8000130DC005C08E00704306002031C3A2E97
:101CD8006108043E3B3E8600013087006530010202
:101CE800031C802E6430DC006108043E3B3E860005
:101CF800013087005C08810061080C3E3B3E86008D
:101D08000130870065300102031C942E6430DC002A
:101D180061080C3E3B3E8600013087005C0881006C
:101D28000130DC005C08E10704306102031C162E58
:101D3800183022003B020318BB013C303C02031858
:101D4800BC0118303D020318BD013C303E020318A7
:101D5800BE01183043020318C3013C304402031883
:101D6800C401183045020318C5013C304602031867
:101D7800C60103304C02E93003194B02031CC82E7C
:101D88000330CC00E830D22E00304C020A30031960
:101D98004B020318D32E0030CC000A30CB0096310A
:101DA8002C268D31033022004E02E93003194D02F2
:101DB800031CE22E0330CE00E830EC2E00304E0239
:101DC8000A3003194D020318ED2E0030CE000A30F8
:101DD800CD009631422608007C03031D512F2200B6
:101DE800200C0339F400F40AF40D20087406F939BC
:101DF8007406A000200C0339F4007408F600422F82
:101E0800F701043077020318212F7735023E213E6F
:101E18008600013087000030C03FC13F7735DC3E87
:101E2800860087010030C03FC13F0130F4007408CC
:101E3800F70704307702031C092F9731E0278E310A
:101E4800943186248E31F92F883190208E31943147
:101E58007C248E31963100268E31F92F8731C827A0
:101E68008E31943181248E31963116268E31F92F98
:101E7800943177248E3122002014F92F7608003A05
:101E88000319042F013A0319282F033A0319322F93
:101E9800013A03193C2FF92FF92F21307C06031D35
:101EA8006D2F2200200C0339F4007408F600642F0B
:101EB800963100268E31F92F963116268E31F92F5C
:101EC8007608013A03195C2F033A0319602FF92F9A
:101ED800F92F41307C06031DF92F2200200C03390D
:101EE800F4007408F600EE2F00302200CC000A300F
:101EF800CB00200C0339F400F40AF40D2008740612
:101F0800F9397406A00021005016883190208E31CE
:101F180094317C248E31F92F2100501EAA2F2200E3
:101F28004B080A3EF40000304C3DF50003307502C2
:101F3800E830031974020318A62F0A30CB070030C3
:101F4800CC3DBB2F0330CC00E830BA2F0030220044
:101F58004C02153003194B02031CB72F0A30CB0271
:101F68000030CC3BBB2F0030CC000A30CB0088318E
:101F780090208E31F92F2100D01ED92F22004D0834
:101F88000A3EF40000304E3DF50003307502E8309B
:101F9800031974020318D52F0A30CD070030CE3D3F
:101FA800EA2F0330CE00E830E92F003022004E023D
:101FB800153003194D02031CE62F0A30CD020030FC
:101FC800CE3BEA2F0030CE000A30CD008731C8273B
:101FD8008E31F92F7608003A0319782F013A031940
:101FE800902F033A0319BF2FF92F21005015033002
:101FF800F4007408D3000800413454342B344134BD
:10200800443456345F344D34463452345F34533498
:10201800503443343D34333430343334313433344E
:102028003134333431343334303433343134333479
:102038003034333431340D340A34003441345434B8
:102048002B344134443456345F344D34463452349E
:102058005F345334503443343D343F340D340A3400
:10206800003433343034333431343334313433346A
:10207800313433343034333431343334303433342A
:1020880031340034413454342B344D344F344434D7
:1020980045343D3444344134543441340D340A34E5
:1020A8000034413454342B345334453454343D349F
:1020B80031340D340A340034413454342B344F3421
:1020C8004B340D340A340034413454340D340A345A
:1020D80000348331F52B84311F2C8431492C843111
:1020E800AE2C8431C72C85311B2D8531512D85317E
:1020F800C22D8731272F8631272E8631812E8631B2
:0A2108009B2E8631B42E8631FA2E8C
:1028E20020009717080020001F15080022000D176E
:1028F2008E138D17080022000D138E138D130800FE
:1029020022000D178E178D13080022000D138E174B
:102912008D17080022000D178E138D170800220054
:102922000D138E138D13080022000D178E178D13B1
:10293200080022000D138E178D1708008D31F8251F
:1029420094318B314D230800640080010131890BE1
:10295200A62C0034FE0012001E00FE0BAC2C00342C
:102962002000A000111EB32C200823009A000800AA
:102972006030320099009B0148309D0006309F0074
:102982009E0108009F3025009300920191011F08CB
:10299200FC3901389F0008009F30250097009601FE
:1029A20095011F08F33904389F0008000330200006
:1029B2009F00F9309E009D019110210091140800A2
:1029C2009F30260093009201910125001F08CF3904
:1029D20010389F0008009F3026009700960195014D
:1029E20025001F083F3940389F000800200097014A
:1029F200D7309800FF309600950190122100901672
:102A02000800210052080319082D0130D202520891
:102A1200031D0800D01108002000DE002D30DC006C
:102A22005C08A7002F30DD005D08A8005E08973122
:102A32002A270800200021083100920020002008E7
:102A42003100910015171514000000003100130821
:102A520008002000A6002608003EA00070300318DF
:102A62007130A1002408A5002508A20088316E203B
:102A72000800210091121112083023009F009030AB
:102A82009D0024309E00A0309B0001309C0021005C
:102A9200911608002000A3002308003EA000703019
:102AA20003187130A10095311B252000A2002208D5
:102AB200A400240808002000A10104302102031808
:102AC20008002135D43E860087010030C03FC13F57
:102AD2000130A0002008A1075E2D20000E09013957
:102AE200F0007008F10071086B067105F0007008C3
:102AF200EC007108F0007008EB006C086B0608002F
:102B02002100EB01EA01E901E80101302000A00007
:102B120020082100E70001302000A0002008210049
:102B2200E600E501080023009D1C992D1D121D16CB
:102B32001908F000200068084F3E86000130870027
:102B4200700881000130F0007008E8070800FF30CB
:102B5200F0050330F1052500131EB92D0630F035BE
:102B6200F10D890BB02D71089200700891000800D8
:102B720071089200700891000800FF30F0050330E0
:102B8200F1052500171ECF2D0630F035F10D890B0A
:102B9200C62D71089600700895000800710896000D
:102BA200700895000800FF30F0050330F10526009B
:102BB200131EE52D0630F035F10D890BDC2D710861
:102BC200920070089100080071089200700891004C
:102BD2000800FF30F0050330F1052600171EFB2D1B
:102BE2000630F035F10D890BF22D71089600700850
:102BF20095000800710896007008950008000330DF
:102C020022004C02213003194B02031C0B2E21001F
:102C120050120800003022004C02C83003194B0247
:102C220003180800210050160800033022004E024B
:102C3200213003194D02031C212E2100D01208005D
:102C4200003022004E02C83003194D02031808005A
:102C52002100D0160800033022004C022130031953
:102C62004B02031C372E21005012080000302200B4
:102C72004C02C83003194B020318080021005016F9
:102C82000800033022004E02213003194D02031CBA
:102C92004D2E2100D0120800003022004E02C83012
:102CA20003194D02031808002100D0160800200065
:102CB2002108840022088500120003190800200060
:102CC200210884002208850000089431B12496313D
:102CD20001302000A1070030A23D582E2000A101A2
:102CE20004302102031808002135023E213E8600ED
:102CF200013087002135D43E84008501403F803F6A
:102D0200413F813F0130A0002008A107712E200021
:102D1200A500A301A401200824020318A02E240860
:102D22002507A10021088600013087000108A200C2
:102D32002208A3060130A1002108A4078C2E230833
:102D4200080020006E080319B72EEE0197310E27F6
:102D52009631210051080319B02E0130D1025108D9
:102D6200031D080050108B314D230800EE01EE0ABE
:102D720088310C2008008B31032396319431B92419
:102D820096319431C32496319431CD2496319431C5
:102D9200EC2496319431E12496319431D724963142
:102DA2009431F724963195313A2508002000A90084
:102DB200AA0126082A020318080029082A079531C1
:102DC2004B2596312000A7002A082507A8002808CD
:102DD20086008701270881000130A7002708AA077B
:102DE200DA2E2000A401A501201CFB2E2208A40734
:102DF2002308A53D0130A235A30D890BFC2E01301D
:102E0200A136A00C890B012F20082104031DF52EE9
:102E12002508A1002408A000080000302000A0001E
:102E2200A10097316427973100302000A000A10053
:102E320097318327973100302000A000A1009731FD
:102E4200A227973100302000A000A1009731C127AE
:102E520008002000AB00AC0128082C02031808006F
:102E62002C082707A9002908860087010108AA0063
:102E72002A08A4002B082C0795312A259731013006
:102E82002000A9002908AC072D2F2100530803199F
:102E92004C2F0130D3025308031D08002030860056
:102EA200013087002D308400003085002F30200053
:102EB200DF0016001A00DF0B5A2F103095310D2556
:102EC200210050110800FF302000A0050330A105A9
:102ED2002500131E7A2F06302000A035A10D890B84
:102EE2006E2F210825009200200020082500910065
:102EF200080020002108250092002000200825005B
:102F020091000800FF302000A0050330A105250034
:102F1200171E992F06302000A035A10D890B8D2F89
:102F220021082500960020002008250095000800B1
:102F32002000210825009600200020082500950089
:102F42000800FF302000A0050330A1052600131E53
:102F5200B82F06302000A035A10D890BAC2F210817
:102F62002600920020002008260091000800200080
:102F72002108260092002000200826009100080067
:102F8200FF302000A0050330A1052600171ED72F11
:102F920006302000A035A10D890BCB2F2108260079
:102FA2009600200020082600950008002000210835
:102FB2002600960020002008260095000800210027
:102FC2005D08F1005C08F0009531D42597312100AD
:102FD2005F08F1005E08F0009531BE2597312100AF
:102FE2006108F1006008F0009531EA25973121006F
:0E2FF2006308F1006208F0009531A825080080
:020000040001F9
:08000E00ECDF3DFDFFFFFFFFE9
:00000001FF
