:0400000080313128F2
:100008007E1480310B1F19282100911E1928200009
:10001800911E192887318E2780315F182F288E313D
:100028008C268031DF16E4012F282100901E242819
:100038002000901E242890128E31052680312F280A
:100048000B1F2F282100911C2F282000911C2F28DE
:1000580091108F3127277E10090080313328210025
:100068001F30C7001C30C8001F30C9001E30CA002E
:100078001F30CB001E30CC001F30CD00CE001E300C
:10008800CF001F30D0001E30D1001F30D2004830C2
:10009800F901FA018400003085002630FE000030A6
:1000A800FF0087319E278031A03084000030850012
:1000B8002730FE000030FF0087319E278031203036
:1000C8008400013085002030FE000030FF008731B9
:1000D8009E278031A0308400013085005030FE001A
:1000E8000030FF0087319E2780317E1020007C2859
:1000F800BE2080318B170B17E5218031E621803136
:1001080057218031592180316B21803164002000D2
:100118005F1C8A280C19A02822000E1CA028200089
:10012800E30105302000C7002630890B9928C70B4A
:100138009928000022000E1020000C1DAB28220078
:100148000E18AB280E148F2280312000E301200006
:10015800C81CB128C810E6248031481C8A284810D9
:10016800C81DB8285B2180312000481D8A28EF214E
:1001780080318A28DB208031D120803122218031D2
:1001880028218031312180313C2180314721803143
:100198004D21803163228031532A6030320099002A
:1001A8009B0148309D0006309F009E0108002200F8
:1001B8008C018D018E01343021008C008D010230BC
:1001C8008E0023008E018D018C0124008D010630E4
:1001D8008C008E0125008C018D018E0100308B1B57
:1001E80001302000A0008B13792780310F102408DC
:1001F800E0391138A4003D002208E0391438A20083
:100208002708E0390C38A7002608E0390D38A60081
:100218002308E0390E38A3002408E0390F38A40079
:100228002508E0390238A500792780310F1420000D
:10023800201C20298B1708008B1308009F302500ED
:100248009300920191017F2F9F30970096019501AD
:100258001F08F33904389F0008009F3026009300D8
:100268009201910125001F08CF3910389F0008001E
:100278009F30260097009601950125001F083F39F9
:1002880040389F00080080302C00990098019701A1
:100298007F2F033020009F00F9309E009D019110B0
:1002A800210091140800971708001F1508006D0811
:1002B80003196829ED01552620004A08031DCA03C1
:1002C8004A080319C8110800ED01ED0A6E2A1A3010
:1002D8002000A600F830890B6F29A60B6F290000B3
:1002E80022000D1605302000A7000F30A600F130BF
:1002F800890B7C29A60B7C29A70B7C2901302000BF
:10030800E2006830A4009030A500AF2180310930A8
:10031800E2002230A4009030A500AF2180315F1B9D
:100328009D290830E2000030A4009030A500AF21DC
:1003380080310230E2005530A4009030A500AF2192
:1003480080310330E2004630A4009030A500AF2190
:100358005F1E5F14080089278031CB218031DF14AC
:10036800E101BA2989278031CB2180315F19C92958
:100378001E306002031CBA29E001E10A0330610261
:10038800031CB629E101DF105F165F110800210880
:10039800840022088500120003190800210884003F
:1003A800220885000008DE2180312000A10A0319F7
:1003B800A20ACB29A000111EDF29200823009A00D9
:1003C80008006C2EEC01EB01EA01E9010130E800BC
:1003D800E700E60108004908031DC9034908031D91
:1003E800080099308600233087002B3084000030C5
:1003F80085000730B70016001A00B70BFF29103028
:1004080028228031B8013808AB003808202780310D
:1004180051258031A030200784002330213D8500FC
:100428002C308600003087000A30B70012001E000A
:10043800B70B1A2A20302F2280310830B80A380228
:10044800031C072A48110800B2002B30A600073009
:10045800A7003208382AB6002C30A6000A30A700B8
:100468002B0EF0393607382AA900AA0127082A02D4
:10047800031808002A082607A80086008701010833
:10048800A40029082A074B228031AA0A3A2AA50083
:10049800A0007030A101A1072408A200F52E911236
:1004A8001112083023009F0090309D0024309E00D8
:1004B800A0309B0001309C0021009116080020000C
:1004C8009701D7309800FF309600950190122100CF
:1004D80090160800E830A0000330A100D425803130
:1004E800E8302000A0000330A100E4258031E83086
:1004F8002000A0000330A100F4258031E83020005E
:10050800A0000330A1002F268031E8302000A00091
:100518000330A1003F2E683021002706031D080084
:10052800B62B632780310330A500D1238031210009
:100538002A06031D08000430290203180800993010
:100548008600233087002908C03F20004815033063
:10055800C9008B258031652C290BE02A632780315F
:100568000730A500D123803121002E06031D080085
:1005780099308600233087000130C03F2A082000C8
:10058800BA009A30692780319B3086003A0881008A
:1005980021002C082000BA009C3086003A0881000F
:1005A80021002D082000BA009D3086003A088100FD
:1005B80048150330C900AF2A02302906031D080078
:1005C800632780310530A500D123803121002C0616
:1005D800031D080099308600233087000230C03F91
:1005E8002A082000BA009E30692780319F30D92A16
:1005F80028082906031D022B0130032B0030200098
:10060800BA0026278031031908008B2D28082906EF
:10061800031D102B0130112B00302000BA002627B3
:10062800803103190800E52B29082000C600460878
:10063800031908000A30A000460859248031AA3E50
:100648008400A7308501A3000030A4000A30A00070
:10065800460859248031033EA500D1238031000685
:10066800031D0800C4014608440203186D2BC50188
:100678000A30A000440859248031AA3E4507BA0030
:10068800860087010108BB004508BC00BD0144087D
:100698002027803151258031A030BE002330BF0093
:1006A80020083E07C00021083F3DC1003C08400724
:1006B800C2003D08413DC300420886004308870048
:1006C8003B0881000A30C50A4502031C3C2BC40ABA
:1006D800372B48150330C900172B28082906031D96
:1006E800772B0130782B00302000BA002627803184
:1006F80003190800042E632780310930A500D1238F
:10070800803121003006031D080029082000E6007A
:1007180021002A082000E70021002B082000E8001B
:1007280021002C082000E90021002D082000EA0003
:1007380021002E082000EB0021002F082000EC00EB
:10074800092B28082906031DAB2B0130AC2B0030E0
:100758002000BA002627803103190800C815033085
:10076800CA0008002808033A0319952A073A03190A
:10077800B02A013A0319FC2A033A03190A2B013A51
:100788000319182B0A3A0319712B033A03197F2B03
:10079800013A0319A52BD02B0800A801A9012508A7
:1007A80029020318E32B2908A600A70123078600BE
:1007B8002708243D87000108A806A90AD32B280882
:1007C800080020006830B9012200A0000630A1000E
:1007D8002000B701202CB8010A30A000390859249C
:1007E8008031233E3807B000860001308700380882
:1007F800B100B20137082027803151258031A0305F
:10080800B3002330B40020083307B5002108343D75
:10081800B6003108350784003208363D85000008E7
:1008280081000A30B80A3802031CF02B0830B90AD4
:10083800B70A37020318332C37082027803151258F
:100848008031A03020073A278031B00012001E0006
:10085800B00B2A2C66258031003A031DEF2B39088E
:100868002200A20020302000A3000130A4000A309A
:10087800A000390859248031033EA500D1238031D6
:10088800B0000A30A000390859248031233E860080
:1008980001308700300881000A30A0003908592447
:1008A8008031043EA3002030B32DA200A10120080E
:1008B8002218A107A035A2362208031D5B2C2108A7
:1008C800080084278031011C932C9930860041311F
:1008D800010820002F278031512580312108CC00C4
:1008E8002008CB0099308600233087004231010868
:1008F8002F278031512580312108CE002008CD00D6
:100908009930860023308700433101082F27803132
:10091800512580312108D0002008CF009A2C2000D2
:10092800CB01CC01CD01CE01CF01D001842780318C
:10093800811CC12C2030A000A10145310108A00272
:10094800031CA1039930712780315125803121087A
:10095800D2002008D1009930860023308700453125
:100968000108A0009930A1017127803151258031FB
:100978002108D4002008D300C52CD101D201D3010D
:10098800D401A80128354B3E86008701403FA600C8
:10099800413FA70003302702E93003192602031C50
:1009A800E02CE830A6000330A70028354B3E86002F
:1009B8002608C03F2708C13F0530A80A28020318A7
:1009C8000800C62CB5013508202780315125803113
:1009D800A03016278031811F4B2D35082027803104
:1009E80051258031A03020073A278031B00012000D
:1009F8001E00B00BFB2C66258031003A03194B2DE5
:100A080035082027803151258031A13016278031C3
:100A18000108B30035082027803151258031A230E4
:100A2800162780310108B4006A083306031D4B2DD0
:100A38006B083406031D4B2D3508202780315125BE
:100A48008031A33016278031993084002330850007
:100A58000730B20016001A00B20B2E2D35082027D9
:100A6800803151258031A030162780318030010631
:100A7800031D472D35082027803151258031A030AE
:100A880016278031810148150330C900652C0830CC
:100A9800B50A350203180800E72CA401A501201C9B
:100AA800592D2208A4072308A53DA235A30DA13678
:100AB800A00C20082104031D532D2508A10024089B
:100AC800A000080018302702031800343C30280220
:100AD80003180034043029020318003421302A0294
:100AE8000318003421302B020318003421302C0263
:100AF8000318003421302D020318003421302E024F
:100B08000318003421302F02031C013400346830EC
:100B18002200A0000530A1002000AA012A08223ED8
:100B28008600013087002A08993E84002330850119
:100B3800853D000881000730AA0A2A02031C922D6D
:100B48002030A3000130A4000930A500D123803152
:100B58002200A9000A302000A3002030B32DA500F0
:100B680022000E1005302000A4002630890BBA2D73
:100B7800A40BBA2D00002000A303230A0319CE2DCD
:100B880025088600013087000108DE218031200019
:100B9800A50ABF2D23009E1CCE2D22000E1408008E
:100BA800FF30A0050330A1052500131EE22D0630F5
:100BB8002000A035A10D890BDD2D4B2F20004B2FD8
:100BC800FF30A0050330A1052500171EF22D0630C1
:100BD8002000A035A10D890BED2D532F2000532F98
:100BE800FF30A0050330A1052600131E022E063093
:100BF8002000A035A10D890BFD2D5B2F20005B2F58
:100C08000730AA0068302200A0000D30A1002000A3
:100C1800AB012A082B0203181E2E2B08223E860041
:100C2800013087002B08663E84008501000881009A
:100C3800AB0A0D2E2030A3000130A4002A08023E82
:100C4800A500D12380312200A90020002A08033EF4
:100C5800A3002030B32DFF30A0050330A1052600E6
:100C6800171E3D2E06302000A035A10D890B382E09
:100C7800432F2000432F2108A3002008A200A336F9
:100C8800A20CA336A20C22082C00980020002008F1
:100C98000339A200A20CA20C220CC0392C00970028
:100CA8000800A001A101D42580312000A001A101E4
:100CB800E42580312000A001A101F4258031200025
:100CC800A001A1012F2680312000A001A1013F2E03
:100CD800982680319930860023308700043001023D
:100CE800031C7A2E993086000030C03FB701B70A3E
:100CF8003708993E860023308701873D213001025D
:100D0800031C922E3708993EB5002330B601B63D34
:100D18003508860036088700203081000730B70A7A
:100D28003702031808007C2E99302000A6002330D3
:100D3800A7000730A8001030C3268031B40134085A
:100D48002027803151258031A030B0002330B100F8
:100D580020083007B2002108313DB3003208A60050
:100D68003308A7000A30A800340EF039203EC32605
:100D780080310830B40A340203180800A32EAE00EC
:100D8800AF0128082F02031808002E082F07DE26B7
:100D98008031A9002F08AA00AB012607AC002B0858
:100DA800273DAD002C0886002D0887002908810002
:100DB800AF0AC52EA200A0007030A101A107E72646
:100DC8002000A3000800210831009200200020081C
:100DD80031009100151715140000000031001308A8
:100DE800080000308B1B0130A3002108310092005D
:100DF80020002008310091002000220831009300D3
:100E0800151715158B1355309600AA3096009514B2
:100E180095180C2F15112000230C031C8B13031895
:100E28008B170800B0002330B10020083007860077
:100E38002108313D87000800A0000A30A101A20066
:100E4800A3010800BB01210027062000BC003B08C5
:100E5800BD003C040800A0009930A10186002330A1
:100E6800870044310108A200A30108008400233050
:100E7800213D850026308600003087000A3421088D
:100E8800260096002000200826009500080021086A
:100E98002500920020002008250091000800210864
:100EA800250096002000200825009500080021084C
:100EB8002600920020002008260091000800A73094
:100EC8002000A3000030A400080086003A08810032
:100ED80021002B082000BA00080086002330870074
:100EE80046310108A200A301080055303C008F00DC
:100EF800AA308F0008001F08FC3901389F0008003D
:100F0800993086002330870008002508A2002408AD
:100F1800A100080023009D1C932F1D121D16200000
:100F28006308A73E86008701230019088100200076
:100F3800E30A08006400013080010131FE0200303C
:0C0F4800FF3B7F087E04031900349F2F3C
:101C0A00EC0A3C306C02031C492EEC01EB0A3C3016
:101C1A006B02031C482EEB01EA0A18306A02031C05
:101C2A00482EEA01E80AE90A073069020318E901BD
:101C3A006608F500D030F601F5070730F63D4B2669
:101C4A008E31003A03192B2E1D302C2E1C30210008
:101C5A00C8000D30200067020318482E67080319D0
:101C6A00482E6708C63E86008701680801020318E5
:101C7A00482E0130E800E70A0D306702031C482E9F
:101C8A000130E700E60AC814481408007508033949
:101C9A00031900346430F000F10187268E3167267B
:101CAA008E3170087104031D01349030F000013048
:101CBA00F10087268E3167268E3170087104031968
:101CCA0001340034700871040319822EF401F40AF5
:101CDA00F11B722EF035F10D6C2E71087302031D83
:101CEA00782E70087202031C7E2E7008F2027108A8
:101CFA00F33BF136F00CF40B722E7308F100720804
:101D0A00F00008007608F3007508F200080062087F
:101D1A00031D912EE301080003306302031C08002F
:101D2A006308A53E86000D3087010106031D0800E1
:101D3A006308A63E86000A300106031D08006308F0
:101D4A00A73E86008101E301FC2E22278E31082757
:101D5A008E31003A031D0800B72E5F1508000130C6
:101D6A00E50008006208013A0319B22E033A031982
:101D7A00B42E013A0319B22E073A0319B22E013AC8
:101D8A000319B42E033A0319B42E0E3A0319B22ECC
:101D9A00013A0319B42E902E22278E3108278E314C
:101DAA00003A031D08005F15E5010800D82E02302D
:101DBA00E50008005F15E5013530F0009030F100CC
:101DCA00A7300827003A03195F1708006208023A89
:101DDA000319D12E073A0319DB2E033A0319DC2E15
:101DEA000F3A0319DF2E902E06306206D62E6508AA
:101DFA00003A0319AA2E013A0319EB2E033A0319E2
:101E0A00F92E072F0800F300700884007108850076
:101E1A000008F20073088600870101087206031D94
:101E2A000134F30AF00A0319F10A700884007108F0
:101E3A008500120003190034092F6030F000903039
:101E4A00F100A734DF18E00ADF1E332FE40A10304E
:101E5A006402031C332FDF12E501E301C8190800ED
:101E6A00362FF801DA278F31403FF400413FF50061
:101E7A007306031D422F720874060319742FDA279A
:101E8A008F31C9278F310318512FFA278F318107D4
:101E9A0041310318810A742F7835553E860087012F
:101EAA00403FF200413FF30078354B3E8600C92798
:101EBA008F310318682FFA278F31810200304131A0
:101ECA00813B7F31742F78354B3E86008701783508
:101EDA00553E84008501403F803F413F813F0530A8
:101EEA00F80A7802031C372F7A2F5608F100550892
:101EFA00F00095278F3120005808F1005708F000AC
:101F0A00A2278F3120005A08F1005908F000AF27A4
:101F1A008F3120005C08F1005B08F000BC27080044
:101F2A00FF30F0050330F1052500131EA12F0630FE
:101F3A00F035F10D890B9D2FEB2FFF30F0050330A3
:101F4A00F1052500171EAE2F0630F035F10D890B6D
:101F5A00AA2FF52FFF30F0050330F1052600131ED6
:101F6A00BB2F0630F035F10D890BB72FF02FFF305C
:101F7A00F0050330F1052600171EC82F0630F0358C
:101F8A00F10D890BC42FE62F403FF400413FF500C5
:101F9A007408043EF6000030753DF70073087702B6
:101FAA00031D080072087602080078354B3E860049
:101FBA008701403FF200413FF3007835553E8600E5
:101FCA0008007108960070089500080071089200D0
:101FDA0070089100080071089200700891000800CA
:101FEA00710896007008950008007835553E8600FD
:101FFA00043087010800413454342B3441344434CA
:10200A0056345F344D34463452345F34533450348A
:10201A0043343D343334303433343134333431346B
:10202A003334313433343034333431343334303478
:10203A00333431340D340A340034413454342B34BB
:10204A004134443456345F344D34463452345F3468
:10205A005334503443343D343F340D340A3400345D
:10206A003334303433343134333431343334313437
:10207A003334303433343134333430343334313428
:10208A000034413454342B344D344F3444344534C1
:10209A003D3444344134543441340D340A34003428
:1020AA00413454342B345334453454343D3431346C
:1020BA000D340A340034413454342B344F344B3405
:1020CA000D340A340034413454340D340A340034A3
:020000040001F9
:08000E00ECDF3DFDFFFFFFFFE9
:00000001FF
